{
  "contractName": "I3Coin",
  "abi": [
    {
      "constant": true,
      "inputs": [],
      "name": "name",
      "outputs": [
        {
          "name": "",
          "type": "string"
        }
      ],
      "payable": false,
      "stateMutability": "view",
      "type": "function"
    },
    {
      "constant": false,
      "inputs": [
        {
          "name": "_spender",
          "type": "address"
        },
        {
          "name": "_value",
          "type": "uint256"
        }
      ],
      "name": "approve",
      "outputs": [
        {
          "name": "",
          "type": "bool"
        }
      ],
      "payable": false,
      "stateMutability": "nonpayable",
      "type": "function"
    },
    {
      "constant": true,
      "inputs": [],
      "name": "totalSupply",
      "outputs": [
        {
          "name": "",
          "type": "uint256"
        }
      ],
      "payable": false,
      "stateMutability": "view",
      "type": "function"
    },
    {
      "constant": false,
      "inputs": [
        {
          "name": "_from",
          "type": "address"
        },
        {
          "name": "_to",
          "type": "address"
        },
        {
          "name": "_value",
          "type": "uint256"
        }
      ],
      "name": "transferFrom",
      "outputs": [
        {
          "name": "",
          "type": "bool"
        }
      ],
      "payable": false,
      "stateMutability": "nonpayable",
      "type": "function"
    },
    {
      "constant": false,
      "inputs": [
        {
          "name": "_address",
          "type": "address"
        }
      ],
      "name": "validerUtilisateur",
      "outputs": [],
      "payable": false,
      "stateMutability": "nonpayable",
      "type": "function"
    },
    {
      "constant": true,
      "inputs": [],
      "name": "decimals",
      "outputs": [
        {
          "name": "",
          "type": "uint8"
        }
      ],
      "payable": false,
      "stateMutability": "view",
      "type": "function"
    },
    {
      "constant": true,
      "inputs": [],
      "name": "montantPrimeCreationProjet",
      "outputs": [
        {
          "name": "",
          "type": "uint256"
        }
      ],
      "payable": false,
      "stateMutability": "view",
      "type": "function"
    },
    {
      "constant": true,
      "inputs": [
        {
          "name": "",
          "type": "address"
        }
      ],
      "name": "listeUtilisateur",
      "outputs": [
        {
          "name": "id",
          "type": "uint256"
        },
        {
          "name": "mail",
          "type": "string"
        },
        {
          "name": "nom",
          "type": "string"
        },
        {
          "name": "actif",
          "type": "uint256"
        },
        {
          "name": "profil",
          "type": "uint256"
        }
      ],
      "payable": false,
      "stateMutability": "view",
      "type": "function"
    },
    {
      "constant": false,
      "inputs": [
        {
          "name": "_id",
          "type": "uint256"
        }
      ],
      "name": "validerProjet",
      "outputs": [],
      "payable": false,
      "stateMutability": "nonpayable",
      "type": "function"
    },
    {
      "constant": false,
      "inputs": [
        {
          "name": "_receveur",
          "type": "address"
        },
        {
          "name": "_montant",
          "type": "uint256"
        }
      ],
      "name": "transfert",
      "outputs": [],
      "payable": true,
      "stateMutability": "payable",
      "type": "function"
    },
    {
      "constant": true,
      "inputs": [],
      "name": "getNumberOfUsers",
      "outputs": [
        {
          "name": "",
          "type": "uint256"
        }
      ],
      "payable": false,
      "stateMutability": "view",
      "type": "function"
    },
    {
      "constant": false,
      "inputs": [
        {
          "name": "_spender",
          "type": "address"
        },
        {
          "name": "_subtractedValue",
          "type": "uint256"
        }
      ],
      "name": "decreaseApproval",
      "outputs": [
        {
          "name": "",
          "type": "bool"
        }
      ],
      "payable": false,
      "stateMutability": "nonpayable",
      "type": "function"
    },
    {
      "constant": true,
      "inputs": [
        {
          "name": "_owner",
          "type": "address"
        }
      ],
      "name": "balanceOf",
      "outputs": [
        {
          "name": "",
          "type": "uint256"
        }
      ],
      "payable": false,
      "stateMutability": "view",
      "type": "function"
    },
    {
      "constant": true,
      "inputs": [],
      "name": "montantOuvertureCompte",
      "outputs": [
        {
          "name": "",
          "type": "uint256"
        }
      ],
      "payable": false,
      "stateMutability": "view",
      "type": "function"
    },
    {
      "constant": false,
      "inputs": [
        {
          "name": "_id",
          "type": "uint256"
        }
      ],
      "name": "ajouterFavoris",
      "outputs": [],
      "payable": false,
      "stateMutability": "nonpayable",
      "type": "function"
    },
    {
      "constant": false,
      "inputs": [
        {
          "name": "_id",
          "type": "uint256"
        },
        {
          "name": "_montant",
          "type": "uint256"
        }
      ],
      "name": "tipProjet",
      "outputs": [],
      "payable": false,
      "stateMutability": "nonpayable",
      "type": "function"
    },
    {
      "constant": true,
      "inputs": [],
      "name": "getNumberOfProjets",
      "outputs": [
        {
          "name": "",
          "type": "uint256"
        }
      ],
      "payable": false,
      "stateMutability": "view",
      "type": "function"
    },
    {
      "constant": true,
      "inputs": [],
      "name": "symbol",
      "outputs": [
        {
          "name": "",
          "type": "string"
        }
      ],
      "payable": false,
      "stateMutability": "view",
      "type": "function"
    },
    {
      "constant": true,
      "inputs": [],
      "name": "operationCounter",
      "outputs": [
        {
          "name": "",
          "type": "uint256"
        }
      ],
      "payable": false,
      "stateMutability": "view",
      "type": "function"
    },
    {
      "constant": true,
      "inputs": [],
      "name": "kiosqueCounter",
      "outputs": [
        {
          "name": "",
          "type": "uint256"
        }
      ],
      "payable": false,
      "stateMutability": "view",
      "type": "function"
    },
    {
      "constant": false,
      "inputs": [
        {
          "name": "_name",
          "type": "string"
        },
        {
          "name": "_description",
          "type": "string"
        },
        {
          "name": "_price",
          "type": "uint256"
        }
      ],
      "name": "creerProjet",
      "outputs": [],
      "payable": false,
      "stateMutability": "nonpayable",
      "type": "function"
    },
    {
      "constant": false,
      "inputs": [
        {
          "name": "_to",
          "type": "address"
        },
        {
          "name": "_value",
          "type": "uint256"
        }
      ],
      "name": "transfer",
      "outputs": [
        {
          "name": "",
          "type": "bool"
        }
      ],
      "payable": false,
      "stateMutability": "nonpayable",
      "type": "function"
    },
    {
      "constant": true,
      "inputs": [
        {
          "name": "",
          "type": "uint256"
        }
      ],
      "name": "operations",
      "outputs": [
        {
          "name": "id",
          "type": "uint256"
        },
        {
          "name": "operateur",
          "type": "address"
        },
        {
          "name": "montant",
          "type": "uint256"
        },
        {
          "name": "typeOperation",
          "type": "uint8"
        },
        {
          "name": "description",
          "type": "string"
        },
        {
          "name": "idprojet",
          "type": "uint256"
        },
        {
          "name": "receveur",
          "type": "address"
        }
      ],
      "payable": false,
      "stateMutability": "view",
      "type": "function"
    },
    {
      "constant": false,
      "inputs": [
        {
          "name": "_receiver",
          "type": "address"
        }
      ],
      "name": "envoyerEther",
      "outputs": [],
      "payable": true,
      "stateMutability": "payable",
      "type": "function"
    },
    {
      "constant": false,
      "inputs": [
        {
          "name": "_name",
          "type": "string"
        },
        {
          "name": "_description",
          "type": "string"
        },
        {
          "name": "_price",
          "type": "uint256"
        },
        {
          "name": "_from",
          "type": "address"
        }
      ],
      "name": "creationProjet",
      "outputs": [],
      "payable": false,
      "stateMutability": "nonpayable",
      "type": "function"
    },
    {
      "constant": true,
      "inputs": [],
      "name": "projetCounter",
      "outputs": [
        {
          "name": "",
          "type": "uint256"
        }
      ],
      "payable": false,
      "stateMutability": "view",
      "type": "function"
    },
    {
      "constant": true,
      "inputs": [
        {
          "name": "",
          "type": "uint256"
        }
      ],
      "name": "kiosques",
      "outputs": [
        {
          "name": "id",
          "type": "uint256"
        },
        {
          "name": "name",
          "type": "string"
        },
        {
          "name": "description",
          "type": "string"
        },
        {
          "name": "price",
          "type": "uint256"
        },
        {
          "name": "createur",
          "type": "address"
        },
        {
          "name": "etat",
          "type": "uint256"
        }
      ],
      "payable": false,
      "stateMutability": "view",
      "type": "function"
    },
    {
      "constant": true,
      "inputs": [],
      "name": "utilisateurCounter",
      "outputs": [
        {
          "name": "",
          "type": "uint256"
        }
      ],
      "payable": false,
      "stateMutability": "view",
      "type": "function"
    },
    {
      "constant": true,
      "inputs": [
        {
          "name": "_address",
          "type": "address"
        }
      ],
      "name": "voirUtilisateur",
      "outputs": [
        {
          "name": "",
          "type": "string"
        },
        {
          "name": "",
          "type": "string"
        },
        {
          "name": "",
          "type": "uint256"
        },
        {
          "name": "",
          "type": "uint256"
        },
        {
          "name": "",
          "type": "address"
        },
        {
          "name": "",
          "type": "uint256"
        }
      ],
      "payable": false,
      "stateMutability": "view",
      "type": "function"
    },
    {
      "constant": true,
      "inputs": [
        {
          "name": "",
          "type": "address"
        },
        {
          "name": "",
          "type": "uint256"
        }
      ],
      "name": "favoris",
      "outputs": [
        {
          "name": "",
          "type": "uint256"
        }
      ],
      "payable": false,
      "stateMutability": "view",
      "type": "function"
    },
    {
      "constant": false,
      "inputs": [
        {
          "name": "_name",
          "type": "string"
        },
        {
          "name": "_description",
          "type": "string"
        },
        {
          "name": "_price",
          "type": "uint256"
        }
      ],
      "name": "ajouterKiosque",
      "outputs": [],
      "payable": false,
      "stateMutability": "nonpayable",
      "type": "function"
    },
    {
      "constant": false,
      "inputs": [
        {
          "name": "_spender",
          "type": "address"
        },
        {
          "name": "_addedValue",
          "type": "uint256"
        }
      ],
      "name": "increaseApproval",
      "outputs": [
        {
          "name": "",
          "type": "bool"
        }
      ],
      "payable": false,
      "stateMutability": "nonpayable",
      "type": "function"
    },
    {
      "constant": false,
      "inputs": [
        {
          "name": "_nom",
          "type": "string"
        },
        {
          "name": "_mail",
          "type": "string"
        }
      ],
      "name": "updateUtilisateur",
      "outputs": [],
      "payable": false,
      "stateMutability": "nonpayable",
      "type": "function"
    },
    {
      "constant": true,
      "inputs": [
        {
          "name": "_owner",
          "type": "address"
        },
        {
          "name": "_spender",
          "type": "address"
        }
      ],
      "name": "allowance",
      "outputs": [
        {
          "name": "",
          "type": "uint256"
        }
      ],
      "payable": false,
      "stateMutability": "view",
      "type": "function"
    },
    {
      "constant": true,
      "inputs": [],
      "name": "listeFavoris",
      "outputs": [
        {
          "name": "",
          "type": "uint256[]"
        }
      ],
      "payable": false,
      "stateMutability": "view",
      "type": "function"
    },
    {
      "constant": false,
      "inputs": [
        {
          "name": "_id",
          "type": "uint256"
        },
        {
          "name": "_nom",
          "type": "string"
        },
        {
          "name": "_prix",
          "type": "uint256"
        },
        {
          "name": "_description",
          "type": "string"
        }
      ],
      "name": "updateKiosque",
      "outputs": [],
      "payable": false,
      "stateMutability": "nonpayable",
      "type": "function"
    },
    {
      "constant": true,
      "inputs": [
        {
          "name": "",
          "type": "uint256"
        }
      ],
      "name": "projets",
      "outputs": [
        {
          "name": "id",
          "type": "uint256"
        },
        {
          "name": "createur",
          "type": "address"
        },
        {
          "name": "name",
          "type": "string"
        },
        {
          "name": "description",
          "type": "string"
        },
        {
          "name": "price",
          "type": "uint256"
        },
        {
          "name": "etat",
          "type": "uint256"
        },
        {
          "name": "priceSolution",
          "type": "uint256"
        }
      ],
      "payable": false,
      "stateMutability": "view",
      "type": "function"
    },
    {
      "constant": false,
      "inputs": [
        {
          "name": "_mail",
          "type": "string"
        },
        {
          "name": "_nom",
          "type": "string"
        },
        {
          "name": "_addr",
          "type": "address"
        }
      ],
      "name": "ajouterUtilisateur",
      "outputs": [],
      "payable": false,
      "stateMutability": "nonpayable",
      "type": "function"
    },
    {
      "constant": false,
      "inputs": [
        {
          "name": "_id",
          "type": "uint256"
        },
        {
          "name": "_solutionneur",
          "type": "address"
        },
        {
          "name": "montant_",
          "type": "uint256"
        }
      ],
      "name": "solutionnerProjet",
      "outputs": [],
      "payable": false,
      "stateMutability": "nonpayable",
      "type": "function"
    },
    {
      "constant": true,
      "inputs": [],
      "name": "getProjets",
      "outputs": [
        {
          "name": "",
          "type": "uint256[]"
        }
      ],
      "payable": false,
      "stateMutability": "view",
      "type": "function"
    },
    {
      "constant": false,
      "inputs": [
        {
          "name": "_id",
          "type": "uint256"
        }
      ],
      "name": "achatKiosque",
      "outputs": [],
      "payable": false,
      "stateMutability": "nonpayable",
      "type": "function"
    },
    {
      "inputs": [],
      "payable": false,
      "stateMutability": "nonpayable",
      "type": "constructor"
    },
    {
      "anonymous": false,
      "inputs": [
        {
          "indexed": true,
          "name": "_id",
          "type": "uint256"
        },
        {
          "indexed": true,
          "name": "_compte",
          "type": "address"
        },
        {
          "indexed": false,
          "name": "_nom",
          "type": "string"
        },
        {
          "indexed": false,
          "name": "_mail",
          "type": "string"
        },
        {
          "indexed": false,
          "name": "_valideur",
          "type": "address"
        },
        {
          "indexed": false,
          "name": "montant",
          "type": "uint256"
        }
      ],
      "name": "LogAjouterUtilisateur",
      "type": "event"
    },
    {
      "anonymous": false,
      "inputs": [
        {
          "indexed": true,
          "name": "_id",
          "type": "uint256"
        },
        {
          "indexed": true,
          "name": "_createur",
          "type": "address"
        },
        {
          "indexed": false,
          "name": "_name",
          "type": "string"
        },
        {
          "indexed": false,
          "name": "_price",
          "type": "uint256"
        }
      ],
      "name": "LogCreerProjet",
      "type": "event"
    },
    {
      "anonymous": false,
      "inputs": [
        {
          "indexed": true,
          "name": "_id",
          "type": "uint256"
        },
        {
          "indexed": true,
          "name": "_createur",
          "type": "address"
        },
        {
          "indexed": false,
          "name": "_name",
          "type": "string"
        },
        {
          "indexed": false,
          "name": "_price",
          "type": "uint256"
        },
        {
          "indexed": false,
          "name": "_recompense",
          "type": "uint256"
        },
        {
          "indexed": true,
          "name": "_valideur",
          "type": "address"
        }
      ],
      "name": "LogValiderProjet",
      "type": "event"
    },
    {
      "anonymous": false,
      "inputs": [
        {
          "indexed": true,
          "name": "_id",
          "type": "uint256"
        },
        {
          "indexed": true,
          "name": "_solutionneur",
          "type": "address"
        },
        {
          "indexed": false,
          "name": "_idProjet",
          "type": "uint256"
        },
        {
          "indexed": false,
          "name": "_nomProjet",
          "type": "string"
        },
        {
          "indexed": false,
          "name": "_montant",
          "type": "uint256"
        },
        {
          "indexed": true,
          "name": "_createur",
          "type": "address"
        }
      ],
      "name": "LogSolutionnerProjet",
      "type": "event"
    },
    {
      "anonymous": false,
      "inputs": [
        {
          "indexed": true,
          "name": "_id",
          "type": "uint256"
        },
        {
          "indexed": true,
          "name": "_tippeur",
          "type": "address"
        },
        {
          "indexed": false,
          "name": "_idProjet",
          "type": "uint256"
        },
        {
          "indexed": false,
          "name": "_nomProjet",
          "type": "string"
        },
        {
          "indexed": false,
          "name": "_montant",
          "type": "uint256"
        },
        {
          "indexed": true,
          "name": "_createur",
          "type": "address"
        }
      ],
      "name": "LogTip",
      "type": "event"
    },
    {
      "anonymous": false,
      "inputs": [
        {
          "indexed": true,
          "name": "_id",
          "type": "uint256"
        },
        {
          "indexed": true,
          "name": "_envoyeur",
          "type": "address"
        },
        {
          "indexed": true,
          "name": "_receveur",
          "type": "address"
        },
        {
          "indexed": false,
          "name": "_montant",
          "type": "uint256"
        }
      ],
      "name": "LogTransfert",
      "type": "event"
    },
    {
      "anonymous": false,
      "inputs": [
        {
          "indexed": true,
          "name": "_idProduit",
          "type": "uint256"
        },
        {
          "indexed": true,
          "name": "client",
          "type": "address"
        },
        {
          "indexed": false,
          "name": "_nomProduit",
          "type": "string"
        },
        {
          "indexed": false,
          "name": "_prixProduit",
          "type": "uint256"
        },
        {
          "indexed": false,
          "name": "_vendeur",
          "type": "address"
        }
      ],
      "name": "LogKiosque",
      "type": "event"
    },
    {
      "anonymous": false,
      "inputs": [
        {
          "indexed": true,
          "name": "owner",
          "type": "address"
        },
        {
          "indexed": true,
          "name": "spender",
          "type": "address"
        },
        {
          "indexed": false,
          "name": "value",
          "type": "uint256"
        }
      ],
      "name": "Approval",
      "type": "event"
    },
    {
      "anonymous": false,
      "inputs": [
        {
          "indexed": true,
          "name": "from",
          "type": "address"
        },
        {
          "indexed": true,
          "name": "to",
          "type": "address"
        },
        {
          "indexed": false,
          "name": "value",
          "type": "uint256"
        }
      ],
      "name": "Transfer",
      "type": "event"
    }
  ],
  "bytecode": "0x6060604052620f42406003556103e860045534156200001d57600080fd5b6200002762000239565b637d2b7500600181905550637d2b75006000803373ffffffffffffffffffffffffffffffffffffffff1673ffffffffffffffffffffffffffffffffffffffff168152602001908152602001600020819055503373ffffffffffffffffffffffffffffffffffffffff16600073ffffffffffffffffffffffffffffffffffffffff167fddf252ad1be2c89b69c2b068fc378daa952ba7f163c4a11628f55a4df523b3ef637d2b75006040518082815260200191505060405180910390a3600a600081548092919060010191905055506040805190810160405280600881526020017f72684062702e667200000000000000000000000000000000000000000000000081525081602001819052506040805190810160405280600281526020017f72680000000000000000000000000000000000000000000000000000000000008152508160400181905250600a548160000181815250506001816060018181525050600181608001818152505080600560003373ffffffffffffffffffffffffffffffffffffffff1673ffffffffffffffffffffffffffffffffffffffff168152602001908152602001600020600082015181600001556020820151816001019080519060200190620001fb92919062000279565b5060408201518160020190805190602001906200021a92919062000279565b506060820151816003015560808201518160040155905050506200033c565b60a060405190810160405280600081526020016200025662000300565b81526020016200026562000300565b815260200160008152602001600081525090565b828054600181600116156101000203166002900490600052602060002090601f016020900481019282601f10620002bc57805160ff1916838001178555620002ed565b82800160010185558215620002ed579182015b82811115620002ec578251825591602001919060010190620002cf565b5b509050620002fc919062000314565b5090565b602060405190810160405280600081525090565b6200033991905b80821115620003355760008160009055506001016200031b565b5090565b90565b6146de806200034c6000396000f3006060604052600436106101f9576000357c0100000000000000000000000000000000000000000000000000000000900463ffffffff16806306fdde03146101fe578063095ea7b31461028c57806318160ddd146102e657806323b872dd1461030f57806327916bd614610388578063313ce567146103c1578063342914ce146103f05780633996146e146104195780633fa1f9e3146105865780634362c116146105a95780634d009288146105e0578063661884631461060957806370a08231146106635780637758c981146106b05780637f8ea9be146106d95780638c7161fe146106fc578063904db22e1461072857806395d89b411461075157806399c378b3146107df5780639cb5064514610808578063a10f7fde14610831578063a9059cbb146108da578063b2e9949d14610934578063b6b2e12014610a7d578063b85e466f14610aab578063bed027f014610b73578063bfdc6d6114610b9c578063c0275c4814610d26578063c0cc973d14610d4f578063cb01b37414610eb5578063ccb9e36a14610f0b578063d73dd62314610fb4578063db2a88ad1461100e578063dd62ed3e146110ae578063deeb5a921461111a578063dfb7bce714611184578063e190550d14611236578063e368271d146113c7578063e36b991a14611486578063e4d15719146114d1578063e67ee0501461153b575b600080fd5b341561020957600080fd5b61021161155e565b6040518080602001828103825283818151815260200191508051906020019080838360005b83811015610251578082015181840152602081019050610236565b50505050905090810190601f16801561027e5780820380516001836020036101000a031916815260200191505b509250505060405180910390f35b341561029757600080fd5b6102cc600480803573ffffffffffffffffffffffffffffffffffffffff16906020019091908035906020019091905050611597565b604051808215151515815260200191505060405180910390f35b34156102f157600080fd5b6102f9611689565b6040518082815260200191505060405180910390f35b341561031a57600080fd5b61036e600480803573ffffffffffffffffffffffffffffffffffffffff1690602001909190803573ffffffffffffffffffffffffffffffffffffffff16906020019091908035906020019091905050611693565b604051808215151515815260200191505060405180910390f35b341561039357600080fd5b6103bf600480803573ffffffffffffffffffffffffffffffffffffffff16906020019091905050611a4e565b005b34156103cc57600080fd5b6103d4611cde565b604051808260ff1660ff16815260200191505060405180910390f35b34156103fb57600080fd5b610403611ce3565b6040518082815260200191505060405180910390f35b341561042457600080fd5b610450600480803573ffffffffffffffffffffffffffffffffffffffff16906020019091905050611ce9565b6040518086815260200180602001806020018581526020018481526020018381038352878181546001816001161561010002031660029004815260200191508054600181600116156101000203166002900480156104ef5780601f106104c4576101008083540402835291602001916104ef565b820191906000526020600020905b8154815290600101906020018083116104d257829003601f168201915b50508381038252868181546001816001161561010002031660029004815260200191508054600181600116156101000203166002900480156105725780601f1061054757610100808354040283529160200191610572565b820191906000526020600020905b81548152906001019060200180831161055557829003601f168201915b505097505050505050505060405180910390f35b341561059157600080fd5b6105a76004808035906020019091905050611d1d565b005b6105de600480803573ffffffffffffffffffffffffffffffffffffffff16906020019091908035906020019091905050611f74565b005b34156105eb57600080fd5b6105f36121ba565b6040518082815260200191505060405180910390f35b341561061457600080fd5b610649600480803573ffffffffffffffffffffffffffffffffffffffff169060200190919080359060200190919050506121c4565b604051808215151515815260200191505060405180910390f35b341561066e57600080fd5b61069a600480803573ffffffffffffffffffffffffffffffffffffffff16906020019091905050612456565b6040518082815260200191505060405180910390f35b34156106bb57600080fd5b6106c361249e565b6040518082815260200191505060405180910390f35b34156106e457600080fd5b6106fa60048080359060200190919050506124a4565b005b341561070757600080fd5b610726600480803590602001909190803590602001909190505061253b565b005b341561073357600080fd5b61073b612773565b6040518082815260200191505060405180910390f35b341561075c57600080fd5b61076461277d565b6040518080602001828103825283818151815260200191508051906020019080838360005b838110156107a4578082015181840152602081019050610789565b50505050905090810190601f1680156107d15780820380516001836020036101000a031916815260200191505b509250505060405180910390f35b34156107ea57600080fd5b6107f26127b6565b6040518082815260200191505060405180910390f35b341561081357600080fd5b61081b6127bc565b6040518082815260200191505060405180910390f35b341561083c57600080fd5b6108d8600480803590602001908201803590602001908080601f0160208091040260200160405190810160405280939291908181526020018383808284378201915050505050509190803590602001908201803590602001908080601f016020809104026020016040519081016040528093929190818152602001838380828437820191505050505050919080359060200190919050506127c2565b005b34156108e557600080fd5b61091a600480803573ffffffffffffffffffffffffffffffffffffffff16906020019091908035906020019091905050612b6f565b604051808215151515815260200191505060405180910390f35b341561093f57600080fd5b6109556004808035906020019091905050612d8f565b604051808881526020018773ffffffffffffffffffffffffffffffffffffffff1673ffffffffffffffffffffffffffffffffffffffff1681526020018681526020018560058111156109a357fe5b60ff168152602001806020018481526020018373ffffffffffffffffffffffffffffffffffffffff1673ffffffffffffffffffffffffffffffffffffffff168152602001828103825285818154600181600116156101000203166002900481526020019150805460018160011615610100020316600290048015610a685780601f10610a3d57610100808354040283529160200191610a68565b820191906000526020600020905b815481529060010190602001808311610a4b57829003601f168201915b50509850505050505050505060405180910390f35b610aa9600480803573ffffffffffffffffffffffffffffffffffffffff16906020019091905050612e1d565b005b3415610ab657600080fd5b610b71600480803590602001908201803590602001908080601f0160208091040260200160405190810160405280939291908181526020018383808284378201915050505050509190803590602001908201803590602001908080601f0160208091040260200160405190810160405280939291908181526020018383808284378201915050505050509190803590602001909190803573ffffffffffffffffffffffffffffffffffffffff16906020019091905050612e60565b005b3415610b7e57600080fd5b610b86613204565b6040518082815260200191505060405180910390f35b3415610ba757600080fd5b610bbd600480803590602001909190505061320a565b6040518087815260200180602001806020018681526020018573ffffffffffffffffffffffffffffffffffffffff1673ffffffffffffffffffffffffffffffffffffffff168152602001848152602001838103835288818154600181600116156101000203166002900481526020019150805460018160011615610100020316600290048015610c8e5780601f10610c6357610100808354040283529160200191610c8e565b820191906000526020600020905b815481529060010190602001808311610c7157829003601f168201915b5050838103825287818154600181600116156101000203166002900481526020019150805460018160011615610100020316600290048015610d115780601f10610ce657610100808354040283529160200191610d11565b820191906000526020600020905b815481529060010190602001808311610cf457829003601f168201915b50509850505050505050505060405180910390f35b3415610d3157600080fd5b610d39613264565b6040518082815260200191505060405180910390f35b3415610d5a57600080fd5b610d86600480803573ffffffffffffffffffffffffffffffffffffffff1690602001909190505061326a565b6040518080602001806020018781526020018681526020018573ffffffffffffffffffffffffffffffffffffffff1673ffffffffffffffffffffffffffffffffffffffff168152602001848152602001838103835289818151815260200191508051906020019080838360005b83811015610e0e578082015181840152602081019050610df3565b50505050905090810190601f168015610e3b5780820380516001836020036101000a031916815260200191505b50838103825288818151815260200191508051906020019080838360005b83811015610e74578082015181840152602081019050610e59565b50505050905090810190601f168015610ea15780820380516001836020036101000a031916815260200191505b509850505050505050505060405180910390f35b3415610ec057600080fd5b610ef5600480803573ffffffffffffffffffffffffffffffffffffffff1690602001909190803590602001909190505061351b565b6040518082815260200191505060405180910390f35b3415610f1657600080fd5b610fb2600480803590602001908201803590602001908080601f0160208091040260200160405190810160405280939291908181526020018383808284378201915050505050509190803590602001908201803590602001908080601f0160208091040260200160405190810160405280939291908181526020018383808284378201915050505050509190803590602001909190505061354c565b005b3415610fbf57600080fd5b610ff4600480803573ffffffffffffffffffffffffffffffffffffffff1690602001909190803590602001909190505061368f565b604051808215151515815260200191505060405180910390f35b341561101957600080fd5b6110ac600480803590602001908201803590602001908080601f0160208091040260200160405190810160405280939291908181526020018383808284378201915050505050509190803590602001908201803590602001908080601f0160208091040260200160405190810160405280939291908181526020018383808284378201915050505050509190505061388b565b005b34156110b957600080fd5b611104600480803573ffffffffffffffffffffffffffffffffffffffff1690602001909190803573ffffffffffffffffffffffffffffffffffffffff1690602001909190505061393d565b6040518082815260200191505060405180910390f35b341561112557600080fd5b61112d6139c4565b6040518080602001828103825283818151815260200191508051906020019060200280838360005b83811015611170578082015181840152602081019050611155565b505050509050019250505060405180910390f35b341561118f57600080fd5b611234600480803590602001909190803590602001908201803590602001908080601f0160208091040260200160405190810160405280939291908181526020018383808284378201915050505050509190803590602001909190803590602001908201803590602001908080601f01602080910402602001604051908101604052809392919081815260200183838082843782019150505050505091905050613a5f565b005b341561124157600080fd5b6112576004808035906020019091905050613c14565b604051808881526020018773ffffffffffffffffffffffffffffffffffffffff1673ffffffffffffffffffffffffffffffffffffffff168152602001806020018060200186815260200185815260200184815260200183810383528881815460018160011615610100020316600290048152602001915080546001816001161561010002031660029004801561132e5780601f106113035761010080835404028352916020019161132e565b820191906000526020600020905b81548152906001019060200180831161131157829003601f168201915b50508381038252878181546001816001161561010002031660029004815260200191508054600181600116156101000203166002900480156113b15780601f10611386576101008083540402835291602001916113b1565b820191906000526020600020905b81548152906001019060200180831161139457829003601f168201915b5050995050505050505050505060405180910390f35b34156113d257600080fd5b611484600480803590602001908201803590602001908080601f0160208091040260200160405190810160405280939291908181526020018383808284378201915050505050509190803590602001908201803590602001908080601f0160208091040260200160405190810160405280939291908181526020018383808284378201915050505050509190803573ffffffffffffffffffffffffffffffffffffffff16906020019091905050613c74565b005b341561149157600080fd5b6114cf600480803590602001909190803573ffffffffffffffffffffffffffffffffffffffff16906020019091908035906020019091905050613d63565b005b34156114dc57600080fd5b6114e4613f8b565b6040518080602001828103825283818151815260200191508051906020019060200280838360005b8381101561152757808201518184015260208101905061150c565b505050509050019250505060405180910390f35b341561154657600080fd5b61155c60048080359060200190919050506140a1565b005b6040805190810160405280600981526020017f4943756265436f696e000000000000000000000000000000000000000000000081525081565b600081600260003373ffffffffffffffffffffffffffffffffffffffff1673ffffffffffffffffffffffffffffffffffffffff16815260200190815260200160002060008573ffffffffffffffffffffffffffffffffffffffff1673ffffffffffffffffffffffffffffffffffffffff168152602001908152602001600020819055508273ffffffffffffffffffffffffffffffffffffffff163373ffffffffffffffffffffffffffffffffffffffff167f8c5be1e5ebec7d5bd14f71427d1e84f3dd0314c0f7b2291e5b200ac8c7c3b925846040518082815260200191505060405180910390a36001905092915050565b6000600154905090565b60008060008573ffffffffffffffffffffffffffffffffffffffff1673ffffffffffffffffffffffffffffffffffffffff1681526020019081526020016000205482111515156116e257600080fd5b600260008573ffffffffffffffffffffffffffffffffffffffff1673ffffffffffffffffffffffffffffffffffffffff16815260200190815260200160002060003373ffffffffffffffffffffffffffffffffffffffff1673ffffffffffffffffffffffffffffffffffffffff16815260200190815260200160002054821115151561176d57600080fd5b600073ffffffffffffffffffffffffffffffffffffffff168373ffffffffffffffffffffffffffffffffffffffff16141515156117a957600080fd5b6117fa826000808773ffffffffffffffffffffffffffffffffffffffff1673ffffffffffffffffffffffffffffffffffffffff168152602001908152602001600020546142f990919063ffffffff16565b6000808673ffffffffffffffffffffffffffffffffffffffff1673ffffffffffffffffffffffffffffffffffffffff1681526020019081526020016000208190555061188d826000808673ffffffffffffffffffffffffffffffffffffffff1673ffffffffffffffffffffffffffffffffffffffff1681526020019081526020016000205461431290919063ffffffff16565b6000808573ffffffffffffffffffffffffffffffffffffffff1673ffffffffffffffffffffffffffffffffffffffff1681526020019081526020016000208190555061195e82600260008773ffffffffffffffffffffffffffffffffffffffff1673ffffffffffffffffffffffffffffffffffffffff16815260200190815260200160002060003373ffffffffffffffffffffffffffffffffffffffff1673ffffffffffffffffffffffffffffffffffffffff168152602001908152602001600020546142f990919063ffffffff16565b600260008673ffffffffffffffffffffffffffffffffffffffff1673ffffffffffffffffffffffffffffffffffffffff16815260200190815260200160002060003373ffffffffffffffffffffffffffffffffffffffff1673ffffffffffffffffffffffffffffffffffffffff168152602001908152602001600020819055508273ffffffffffffffffffffffffffffffffffffffff168473ffffffffffffffffffffffffffffffffffffffff167fddf252ad1be2c89b69c2b068fc378daa952ba7f163c4a11628f55a4df523b3ef846040518082815260200191505060405180910390a3600190509392505050565b6000600560008373ffffffffffffffffffffffffffffffffffffffff1673ffffffffffffffffffffffffffffffffffffffff16815260200190815260200160002090506003546000803373ffffffffffffffffffffffffffffffffffffffff1673ffffffffffffffffffffffffffffffffffffffff168152602001908152602001600020600082825403925050819055506003546000808473ffffffffffffffffffffffffffffffffffffffff1673ffffffffffffffffffffffffffffffffffffffff16815260200190815260200160002060008282540192505081905550600181600301819055508173ffffffffffffffffffffffffffffffffffffffff1681600001547f22a55a274aba99ebd1abd7821e27e5e0c6cba047b1e610d149653e10eae477e18360020184600101336003546040518080602001806020018573ffffffffffffffffffffffffffffffffffffffff1673ffffffffffffffffffffffffffffffffffffffff168152602001848152602001838103835287818154600181600116156101000203166002900481526020019150805460018160011615610100020316600290048015611c455780601f10611c1a57610100808354040283529160200191611c45565b820191906000526020600020905b815481529060010190602001808311611c2857829003601f168201915b5050838103825286818154600181600116156101000203166002900481526020019150805460018160011615610100020316600290048015611cc85780601f10611c9d57610100808354040283529160200191611cc8565b820191906000526020600020905b815481529060010190602001808311611cab57829003601f168201915b5050965050505050505060405180910390a35050565b600281565b60045481565b6005602052806000526040600020600091509050806000015490806001019080600201908060030154908060040154905085565b600080600b54111515611d2f57600080fd5b600082118015611d415750600b548211155b1515611d4c57600080fd5b6006600083815260200190815260200160002090506001816005015414151515611d7557600080fd5b6004548160040154016000803373ffffffffffffffffffffffffffffffffffffffff1673ffffffffffffffffffffffffffffffffffffffff168152602001908152602001600020600082825403925050819055506004548160040154016000808360010160009054906101000a900473ffffffffffffffffffffffffffffffffffffffff1673ffffffffffffffffffffffffffffffffffffffff1673ffffffffffffffffffffffffffffffffffffffff16815260200190815260200160002060008282540192505081905550600181600501819055503373ffffffffffffffffffffffffffffffffffffffff168160010160009054906101000a900473ffffffffffffffffffffffffffffffffffffffff1673ffffffffffffffffffffffffffffffffffffffff16837fceab69eb5e484c32cb74ea56ffc174f72c84bb2c0649f1013c8a414e881edf448460020185600401546004546040518080602001848152602001838152602001828103825285818154600181600116156101000203166002900481526020019150805460018160011615610100020316600290048015611f605780601f10611f3557610100808354040283529160200191611f60565b820191906000526020600020905b815481529060010190602001808311611f4357829003601f168201915b505094505050505060405180910390a45050565b611f7c61432e565b611f868383612b6f565b50600c60008154809291906001019190505550600c548160000181815250508181604001818152505033816020019073ffffffffffffffffffffffffffffffffffffffff16908173ffffffffffffffffffffffffffffffffffffffff1681525050600481606001906005811115611ff957fe5b9081600581111561200657fe5b81525050828160c0019073ffffffffffffffffffffffffffffffffffffffff16908173ffffffffffffffffffffffffffffffffffffffff16815250508060096000600c5481526020019081526020016000206000820151816000015560208201518160010160006101000a81548173ffffffffffffffffffffffffffffffffffffffff021916908373ffffffffffffffffffffffffffffffffffffffff1602179055506040820151816002015560608201518160030160006101000a81548160ff021916908360058111156120d757fe5b021790555060808201518160040190805190602001906120f89291906143a9565b5060a0820151816005015560c08201518160060160006101000a81548173ffffffffffffffffffffffffffffffffffffffff021916908373ffffffffffffffffffffffffffffffffffffffff1602179055509050508273ffffffffffffffffffffffffffffffffffffffff163373ffffffffffffffffffffffffffffffffffffffff16600c547f9e5eb61e4ca22b11c903a40523141c33f9a69e48e903e92af52a3a5bf0c3c843856040518082815260200191505060405180910390a4505050565b6000600a54905090565b600080600260003373ffffffffffffffffffffffffffffffffffffffff1673ffffffffffffffffffffffffffffffffffffffff16815260200190815260200160002060008573ffffffffffffffffffffffffffffffffffffffff1673ffffffffffffffffffffffffffffffffffffffff16815260200190815260200160002054905080831015156122d6576000600260003373ffffffffffffffffffffffffffffffffffffffff1673ffffffffffffffffffffffffffffffffffffffff16815260200190815260200160002060008673ffffffffffffffffffffffffffffffffffffffff1673ffffffffffffffffffffffffffffffffffffffff1681526020019081526020016000208190555061236a565b6122e983826142f990919063ffffffff16565b600260003373ffffffffffffffffffffffffffffffffffffffff1673ffffffffffffffffffffffffffffffffffffffff16815260200190815260200160002060008673ffffffffffffffffffffffffffffffffffffffff1673ffffffffffffffffffffffffffffffffffffffff168152602001908152602001600020819055505b8373ffffffffffffffffffffffffffffffffffffffff163373ffffffffffffffffffffffffffffffffffffffff167f8c5be1e5ebec7d5bd14f71427d1e84f3dd0314c0f7b2291e5b200ac8c7c3b925600260003373ffffffffffffffffffffffffffffffffffffffff1673ffffffffffffffffffffffffffffffffffffffff16815260200190815260200160002060008873ffffffffffffffffffffffffffffffffffffffff1673ffffffffffffffffffffffffffffffffffffffff168152602001908152602001600020546040518082815260200191505060405180910390a3600191505092915050565b60008060008373ffffffffffffffffffffffffffffffffffffffff1673ffffffffffffffffffffffffffffffffffffffff168152602001908152602001600020549050919050565b60035481565b6000600b541115156124b557600080fd5b6000811180156124c75750600b548111155b15156124d257600080fd5b600760003373ffffffffffffffffffffffffffffffffffffffff1673ffffffffffffffffffffffffffffffffffffffff16815260200190815260200160002080548060010182816125239190614429565b91600052602060002090016000839091909150555050565b600080600b5411151561254d57600080fd5b60008311801561255f5750600b548311155b151561256a57600080fd5b600660008481526020019081526020016000209050816000803373ffffffffffffffffffffffffffffffffffffffff1673ffffffffffffffffffffffffffffffffffffffff16815260200190815260200160002060008282540392505081905550816000808360010160009054906101000a900473ffffffffffffffffffffffffffffffffffffffff1673ffffffffffffffffffffffffffffffffffffffff1673ffffffffffffffffffffffffffffffffffffffff168152602001908152602001600020600082825401925050819055508181600401600082825401925050819055508060010160009054906101000a900473ffffffffffffffffffffffffffffffffffffffff1673ffffffffffffffffffffffffffffffffffffffff163373ffffffffffffffffffffffffffffffffffffffff16600c547f14e61896963797bb3b2f1a6d91884a7ebfc31f99ffa1ecbe6848b8715a89c502868560020187604051808481526020018060200183815260200182810382528481815460018160011615610100020316600290048152602001915080546001816001161561010002031660029004801561275e5780601f106127335761010080835404028352916020019161275e565b820191906000526020600020905b81548152906001019060200180831161274157829003601f168201915b505094505050505060405180910390a4505050565b6000600b54905090565b6040805190810160405280600381526020017f493343000000000000000000000000000000000000000000000000000000000081525081565b600c5481565b600d5481565b6127ca614455565b6127d261432e565b600b60008154809291906001019190505550600c60008154809291906001019190505550600b548260000181815250508482604001819052508382606001819052508282608001818152505033826020019073ffffffffffffffffffffffffffffffffffffffff16908173ffffffffffffffffffffffffffffffffffffffff168152505060008260a001818152505060008260c00181815250508160066000600b5481526020019081526020016000206000820151816000015560208201518160010160006101000a81548173ffffffffffffffffffffffffffffffffffffffff021916908373ffffffffffffffffffffffffffffffffffffffff16021790555060408201518160020190805190602001906128ef9291906143a9565b50606082015181600301908051906020019061290c9291906143a9565b506080820151816004015560a0820151816005015560c08201518160060155905050600c548160000181815250508281604001818152505033816020019073ffffffffffffffffffffffffffffffffffffffff16908173ffffffffffffffffffffffffffffffffffffffff168152505060008160600190600581111561298e57fe5b9081600581111561299b57fe5b815250508060096000600c5481526020019081526020016000206000820151816000015560208201518160010160006101000a81548173ffffffffffffffffffffffffffffffffffffffff021916908373ffffffffffffffffffffffffffffffffffffffff1602179055506040820151816002015560608201518160030160006101000a81548160ff02191690836005811115612a3457fe5b02179055506080820151816004019080519060200190612a559291906143a9565b5060a0820151816005015560c08201518160060160006101000a81548173ffffffffffffffffffffffffffffffffffffffff021916908373ffffffffffffffffffffffffffffffffffffffff1602179055509050503373ffffffffffffffffffffffffffffffffffffffff16600b547f5bb6401618db3910e54f9f0f454862f4ca3120ba017e8f3d9ff18ec0c9b2f78c87866040518080602001838152602001828103825284818151815260200191508051906020019080838360005b83811015612b2d578082015181840152602081019050612b12565b50505050905090810190601f168015612b5a5780820380516001836020036101000a031916815260200191505b50935050505060405180910390a35050505050565b60008060003373ffffffffffffffffffffffffffffffffffffffff1673ffffffffffffffffffffffffffffffffffffffff168152602001908152602001600020548211151515612bbe57600080fd5b600073ffffffffffffffffffffffffffffffffffffffff168373ffffffffffffffffffffffffffffffffffffffff1614151515612bfa57600080fd5b612c4b826000803373ffffffffffffffffffffffffffffffffffffffff1673ffffffffffffffffffffffffffffffffffffffff168152602001908152602001600020546142f990919063ffffffff16565b6000803373ffffffffffffffffffffffffffffffffffffffff1673ffffffffffffffffffffffffffffffffffffffff16815260200190815260200160002081905550612cde826000808673ffffffffffffffffffffffffffffffffffffffff1673ffffffffffffffffffffffffffffffffffffffff1681526020019081526020016000205461431290919063ffffffff16565b6000808573ffffffffffffffffffffffffffffffffffffffff1673ffffffffffffffffffffffffffffffffffffffff168152602001908152602001600020819055508273ffffffffffffffffffffffffffffffffffffffff163373ffffffffffffffffffffffffffffffffffffffff167fddf252ad1be2c89b69c2b068fc378daa952ba7f163c4a11628f55a4df523b3ef846040518082815260200191505060405180910390a36001905092915050565b60096020528060005260406000206000915090508060000154908060010160009054906101000a900473ffffffffffffffffffffffffffffffffffffffff16908060020154908060030160009054906101000a900460ff169080600401908060050154908060060160009054906101000a900473ffffffffffffffffffffffffffffffffffffffff16905087565b8073ffffffffffffffffffffffffffffffffffffffff166108fc349081150290604051600060405180830381858888f193505050501515612e5d57600080fd5b50565b612e68614455565b612e7061432e565b612e7b833086611693565b50600b60008154809291906001019190505550600c60008154809291906001019190505550600b548260000181815250508582604001819052508482606001819052508382608001818152505033826020019073ffffffffffffffffffffffffffffffffffffffff16908173ffffffffffffffffffffffffffffffffffffffff16815250508160066000600b5481526020019081526020016000206000820151816000015560208201518160010160006101000a81548173ffffffffffffffffffffffffffffffffffffffff021916908373ffffffffffffffffffffffffffffffffffffffff1602179055506040820151816002019080519060200190612f839291906143a9565b506060820151816003019080519060200190612fa09291906143a9565b506080820151816004015560a0820151816005015560c08201518160060155905050600c548160000181815250508381604001818152505033816020019073ffffffffffffffffffffffffffffffffffffffff16908173ffffffffffffffffffffffffffffffffffffffff168152505060008160600190600581111561302257fe5b9081600581111561302f57fe5b815250508060096000600c5481526020019081526020016000206000820151816000015560208201518160010160006101000a81548173ffffffffffffffffffffffffffffffffffffffff021916908373ffffffffffffffffffffffffffffffffffffffff1602179055506040820151816002015560608201518160030160006101000a81548160ff021916908360058111156130c857fe5b021790555060808201518160040190805190602001906130e99291906143a9565b5060a0820151816005015560c08201518160060160006101000a81548173ffffffffffffffffffffffffffffffffffffffff021916908373ffffffffffffffffffffffffffffffffffffffff1602179055509050503373ffffffffffffffffffffffffffffffffffffffff16600b547f5bb6401618db3910e54f9f0f454862f4ca3120ba017e8f3d9ff18ec0c9b2f78c88876040518080602001838152602001828103825284818151815260200191508051906020019080838360005b838110156131c15780820151818401526020810190506131a6565b50505050905090810190601f1680156131ee5780820380516001836020036101000a031916815260200191505b50935050505060405180910390a3505050505050565b600b5481565b6008602052806000526040600020600091509050806000015490806001019080600201908060030154908060040160009054906101000a900473ffffffffffffffffffffffffffffffffffffffff16908060050154905086565b600a5481565b6132726144b5565b61327a6144b5565b600080600080600560008873ffffffffffffffffffffffffffffffffffffffff1673ffffffffffffffffffffffffffffffffffffffff168152602001908152602001600020600201600560008973ffffffffffffffffffffffffffffffffffffffff1673ffffffffffffffffffffffffffffffffffffffff168152602001908152602001600020600101600560008a73ffffffffffffffffffffffffffffffffffffffff1673ffffffffffffffffffffffffffffffffffffffff16815260200190815260200160002060040154600560008b73ffffffffffffffffffffffffffffffffffffffff1673ffffffffffffffffffffffffffffffffffffffff168152602001908152602001600020600001548a600560008d73ffffffffffffffffffffffffffffffffffffffff1673ffffffffffffffffffffffffffffffffffffffff16815260200190815260200160002060030154858054600181600116156101000203166002900480601f0160208091040260200160405190810160405280929190818152602001828054600181600116156101000203166002900480156134635780601f1061343857610100808354040283529160200191613463565b820191906000526020600020905b81548152906001019060200180831161344657829003601f168201915b50505050509550848054600181600116156101000203166002900480601f0160208091040260200160405190810160405280929190818152602001828054600181600116156101000203166002900480156134ff5780601f106134d4576101008083540402835291602001916134ff565b820191906000526020600020905b8154815290600101906020018083116134e257829003601f168201915b5050505050945095509550955095509550955091939550919395565b60076020528160005260406000208181548110151561353657fe5b9060005260206000209001600091509150505481565b6135546144c9565b600d60008154809291906001019190505550600d548160000181815250508381602001819052508281604001819052508181606001818152505060008160a001818152505033816080019073ffffffffffffffffffffffffffffffffffffffff16908173ffffffffffffffffffffffffffffffffffffffff16815250508060086000600d54815260200190815260200160002060008201518160000155602082015181600101908051906020019061360d9291906143a9565b50604082015181600201908051906020019061362a9291906143a9565b506060820151816003015560808201518160040160006101000a81548173ffffffffffffffffffffffffffffffffffffffff021916908373ffffffffffffffffffffffffffffffffffffffff16021790555060a0820151816005015590505050505050565b600061372082600260003373ffffffffffffffffffffffffffffffffffffffff1673ffffffffffffffffffffffffffffffffffffffff16815260200190815260200160002060008673ffffffffffffffffffffffffffffffffffffffff1673ffffffffffffffffffffffffffffffffffffffff1681526020019081526020016000205461431290919063ffffffff16565b600260003373ffffffffffffffffffffffffffffffffffffffff1673ffffffffffffffffffffffffffffffffffffffff16815260200190815260200160002060008573ffffffffffffffffffffffffffffffffffffffff1673ffffffffffffffffffffffffffffffffffffffff168152602001908152602001600020819055508273ffffffffffffffffffffffffffffffffffffffff163373ffffffffffffffffffffffffffffffffffffffff167f8c5be1e5ebec7d5bd14f71427d1e84f3dd0314c0f7b2291e5b200ac8c7c3b925600260003373ffffffffffffffffffffffffffffffffffffffff1673ffffffffffffffffffffffffffffffffffffffff16815260200190815260200160002060008773ffffffffffffffffffffffffffffffffffffffff1673ffffffffffffffffffffffffffffffffffffffff168152602001908152602001600020546040518082815260200191505060405180910390a36001905092915050565b81600560003373ffffffffffffffffffffffffffffffffffffffff1673ffffffffffffffffffffffffffffffffffffffff16815260200190815260200160002060020190805190602001906138e1929190614522565b5080600560003373ffffffffffffffffffffffffffffffffffffffff1673ffffffffffffffffffffffffffffffffffffffff1681526020019081526020016000206001019080519060200190613938929190614522565b505050565b6000600260008473ffffffffffffffffffffffffffffffffffffffff1673ffffffffffffffffffffffffffffffffffffffff16815260200190815260200160002060008373ffffffffffffffffffffffffffffffffffffffff1673ffffffffffffffffffffffffffffffffffffffff16815260200190815260200160002054905092915050565b6139cc6145a2565b600760003373ffffffffffffffffffffffffffffffffffffffff1673ffffffffffffffffffffffffffffffffffffffff168152602001908152602001600020805480602002602001604051908101604052809291908181526020018280548015613a5557602002820191906000526020600020905b815481526020019060010190808311613a41575b5050505050905090565b600080600d54111515613a7157600080fd5b600085118015613a835750600d548511155b1515613a8e57600080fd5b60086000868152602001908152602001600020905082816003018190555083816001019080519060200190613ac4929190614522565b5081816002019080519060200190613add929190614522565b50338160040160006101000a81548173ffffffffffffffffffffffffffffffffffffffff021916908373ffffffffffffffffffffffffffffffffffffffff16021790555080600860008781526020019081526020016000206000820154816000015560018201816001019080546001816001161561010002031660029004613b669291906145b6565b5060028201816002019080546001816001161561010002031660029004613b8e9291906145b6565b50600382015481600301556004820160009054906101000a900473ffffffffffffffffffffffffffffffffffffffff168160040160006101000a81548173ffffffffffffffffffffffffffffffffffffffff021916908373ffffffffffffffffffffffffffffffffffffffff160217905550600582015481600501559050505050505050565b60066020528060005260406000206000915090508060000154908060010160009054906101000a900473ffffffffffffffffffffffffffffffffffffffff1690806002019080600301908060040154908060050154908060060154905087565b613c7c61463d565b600a6000815480929190600101919050555083816020018190525082816040018190525060008160600181815250506000816080018181525050600a5481600001818152505080600560008473ffffffffffffffffffffffffffffffffffffffff1673ffffffffffffffffffffffffffffffffffffffff168152602001908152602001600020600082015181600001556020820151816001019080519060200190613d289291906143a9565b506040820151816002019080519060200190613d459291906143a9565b50606082015181600301556080820151816004015590505050505050565b600080600b54111515613d7557600080fd5b600084118015613d875750600b548411155b1515613d9257600080fd5b60066000858152602001908152602001600020905080600401548211151515613dba57600080fd5b816000803373ffffffffffffffffffffffffffffffffffffffff1673ffffffffffffffffffffffffffffffffffffffff16815260200190815260200160002060008282540392505081905550816000808573ffffffffffffffffffffffffffffffffffffffff1673ffffffffffffffffffffffffffffffffffffffff168152602001908152602001600020600082825401925050819055508181600601600082825401925050819055508060010160009054906101000a900473ffffffffffffffffffffffffffffffffffffffff1673ffffffffffffffffffffffffffffffffffffffff168373ffffffffffffffffffffffffffffffffffffffff16600c547fd6ef34c2156646175e63070be475a5c0471c30eea63edb6c5886bc7820f1afad8785600201876040518084815260200180602001838152602001828103825284818154600181600116156101000203166002900481526020019150805460018160011615610100020316600290048015613f755780601f10613f4a57610100808354040283529160200191613f75565b820191906000526020600020905b815481529060010190602001808311613f5857829003601f168201915b505094505050505060405180910390a450505050565b613f936145a2565b613f9b6145a2565b600080613fa66145a2565b6000600b54604051805910613fb85750595b9080825280602002602001820160405250945060009350600192505b600b5483111515614027576006600084815260200190815260200160002060000154858581518110151561400457fe5b906020019060200201818152505083806001019450508280600101935050613fd4565b836040518059106140355750595b90808252806020026020018201604052509150600090505b8381101561409657848181518110151561406357fe5b90602001906020020151828281518110151561407b57fe5b9060200190602002018181525050808060010191505061404d565b819550505050505090565b600080600d541115156140b357600080fd5b6000821180156140c55750600d548211155b15156140d057600080fd5b60086000838152602001908152602001600020905060018160050154141515156140f957600080fd5b80600301546000803373ffffffffffffffffffffffffffffffffffffffff1673ffffffffffffffffffffffffffffffffffffffff1681526020019081526020016000206000828254039250508190555080600301546000808360040160009054906101000a900473ffffffffffffffffffffffffffffffffffffffff1673ffffffffffffffffffffffffffffffffffffffff1673ffffffffffffffffffffffffffffffffffffffff168152602001908152602001600020600082825401925050819055503373ffffffffffffffffffffffffffffffffffffffff16827f53c18f4b7dc6a1d705df5ddd827a4e8dc28020fea17fe6f10b41ba5e61833c718360010184600301548560040160009054906101000a900473ffffffffffffffffffffffffffffffffffffffff1660405180806020018481526020018373ffffffffffffffffffffffffffffffffffffffff1673ffffffffffffffffffffffffffffffffffffffff1681526020018281038252858181546001816001161561010002031660029004815260200191508054600181600116156101000203166002900480156142e55780601f106142ba576101008083540402835291602001916142e5565b820191906000526020600020905b8154815290600101906020018083116142c857829003601f168201915b505094505050505060405180910390a35050565b600082821115151561430757fe5b818303905092915050565b6000818301905082811015151561432557fe5b80905092915050565b60e06040519081016040528060008152602001600073ffffffffffffffffffffffffffffffffffffffff168152602001600081526020016000600581111561437257fe5b815260200161437f614679565b815260200160008152602001600073ffffffffffffffffffffffffffffffffffffffff1681525090565b828054600181600116156101000203166002900490600052602060002090601f016020900481019282601f106143ea57805160ff1916838001178555614418565b82800160010185558215614418579182015b828111156144175782518255916020019190600101906143fc565b5b509050614425919061468d565b5090565b8154818355818115116144505781836000526020600020918201910161444f919061468d565b5b505050565b60e06040519081016040528060008152602001600073ffffffffffffffffffffffffffffffffffffffff16815260200161448d614679565b815260200161449a614679565b81526020016000815260200160008152602001600081525090565b602060405190810160405280600081525090565b60c060405190810160405280600081526020016144e4614679565b81526020016144f1614679565b815260200160008152602001600073ffffffffffffffffffffffffffffffffffffffff168152602001600081525090565b828054600181600116156101000203166002900490600052602060002090601f016020900481019282601f1061456357805160ff1916838001178555614591565b82800160010185558215614591579182015b82811115614590578251825591602001919060010190614575565b5b50905061459e919061468d565b5090565b602060405190810160405280600081525090565b828054600181600116156101000203166002900490600052602060002090601f016020900481019282601f106145ef578054855561462c565b8280016001018555821561462c57600052602060002091601f016020900482015b8281111561462b578254825591600101919060010190614610565b5b509050614639919061468d565b5090565b60a06040519081016040528060008152602001614658614679565b8152602001614665614679565b815260200160008152602001600081525090565b602060405190810160405280600081525090565b6146af91905b808211156146ab576000816000905550600101614693565b5090565b905600a165627a7a723058204fceee7f3504c911a563c07d28e16d19c489ff7e0a7e79ea96f09214f8f833ac0029",
  "source": "pragma solidity ^0.4.18;\r\n\r\nimport 'zeppelin-solidity/contracts/token/ERC20/StandardToken.sol';\r\n\r\ncontract I3Coin is StandardToken {\r\n\r\n    //Construction du jeton I3Coin (I3C)\r\n    string public constant name = 'ICubeCoin';\r\n    string public constant symbol = 'I3C';\r\n    uint8 public constant decimals = 2;\r\n    uint constant _initial_supply = 2100000000;\r\n    //Utilisateur newUtilisateur= Utilisateur({id:1,mail:\"hhhh\", nom:\"wapo\"});\r\n    //Constructeur\r\n    function I3Coin() public {\r\n        //newUtilisateur.nom=\"Nathalie\";\r\n        totalSupply_ = _initial_supply;\r\n        balances[msg.sender] = _initial_supply;\r\n        Transfer(address(0), msg.sender, _initial_supply);\r\n        Utilisateur memory u;\r\n        utilisateurCounter++;\r\n        u.mail=\"rh@bp.fr\";\r\n        u.nom=\"rh\";\r\n        u.id=utilisateurCounter;\r\n        u.actif=1;\r\n        u.profil=1;\r\n        //u.addr=msg.sender;\r\n        listeUtilisateur[msg.sender] = u;\r\n\r\n\r\n\r\n    }\r\n\r\n    uint256 public montantOuvertureCompte=1000000;\r\n    uint256 public montantPrimeCreationProjet=1000;\r\n\r\n    enum Type_Utilisateur{PORTEUR,SOLUTIONNEUR}\r\n    enum TypeOperation{CREATION_PROJET,VALIDATION_PROJET,TIP,SOLUTIONNER_PROJET,TRANSFERT,CREATION_COMPTE}\r\n\r\n    struct Utilisateur {\r\n        uint id;\r\n        string mail;\r\n        string nom;\r\n        //string pass;\r\n        uint actif;\r\n        //address addr;\r\n        uint profil;\r\n\r\n    }\r\n    struct Projet {\r\n      uint id;\r\n      address createur;\r\n      string name;\r\n      string description;\r\n      uint256 price;\r\n      //etat=0 en cours de traitement, etat= 1 valide, etat=2 rejet\r\n      uint etat;\r\n      uint256 priceSolution;\r\n    }\r\n\r\n    struct Kiosque {\r\n      uint id;\r\n      string name;\r\n      string description;\r\n      uint256 price;\r\n      //statut=0 (actif)  statut= 1 (dsactiv)\r\n      address createur;\r\n      uint etat;\r\n    }\r\n\r\n    struct Operation{\r\n      uint id;\r\n      //createur/solutionneur/tippeur/envoyeur\r\n      address operateur;\r\n      uint256 montant;\r\n      TypeOperation typeOperation;\r\n      string description;\r\n      //Quand il s'agit d'un tip ou de solutionner un projet\r\n      uint idprojet;\r\n      //Quand il s'agit d'un transfer de i3coin\r\n      address  receveur;\r\n    }\r\n\r\n    mapping (address => Utilisateur) public listeUtilisateur;\r\n    mapping (uint => Projet) public projets;\r\n    mapping (address => uint[]) public favoris;\r\n    mapping (uint => Kiosque) public kiosques;\r\n    mapping (uint => Operation) public operations;\r\n\r\n    uint public utilisateurCounter;\r\n    uint public projetCounter;\r\n    uint public operationCounter;\r\n    uint public kiosqueCounter;\r\n\r\n    event LogAjouterUtilisateur(\r\n      uint indexed _id,\r\n      address indexed _compte,\r\n      string _nom,\r\n      string _mail,\r\n      address _valideur,\r\n      uint256 montant\r\n    );\r\n    event LogCreerProjet(\r\n      uint indexed _id,\r\n      address indexed _createur,\r\n      string _name,\r\n      uint256 _price\r\n    );\r\n    event LogValiderProjet(\r\n      uint indexed _id,\r\n      address indexed _createur,\r\n      string _name,\r\n      uint256 _price,\r\n      uint256 _recompense,\r\n      address indexed _valideur\r\n    );\r\n    event LogSolutionnerProjet(\r\n      uint indexed _id,\r\n      address indexed _solutionneur,\r\n      uint _idProjet,\r\n      string _nomProjet,\r\n      uint256 _montant,\r\n      address indexed _createur\r\n    );\r\n    event LogTip(\r\n      uint indexed _id,\r\n      address indexed _tippeur,\r\n      uint _idProjet,\r\n      string _nomProjet,\r\n      uint256 _montant,\r\n      address indexed _createur\r\n    );\r\n\r\n\r\n    event LogTransfert(\r\n      uint indexed _id,\r\n      address indexed _envoyeur,\r\n      address indexed _receveur,\r\n      uint256 _montant\r\n    );\r\n\r\n    event LogKiosque(\r\n      uint indexed _idProduit,\r\n      address indexed client,\r\n      string  _nomProduit,\r\n      uint256  _prixProduit,\r\n      address _vendeur\r\n    );\r\n    /*event LogTransaction(\r\n      address owner;\r\n      uint256 montant;\r\n      TypeOperation typeOperation;\r\n      string description;\r\n      uint idprojet;\r\n      address  receveur;\r\n\r\n    );*/\r\n\r\n    //Ajouter un nouvel utilisateur\r\n    //Charger le compte de l'utilisateur aprs que le chargement du compte approuve le chargement\r\n    //Precondition approve(spender,montant) lanc par l'utilisateur du compte chargeur\r\n\r\n    function ajouterUtilisateur (string _mail, string _nom,address _addr) public {\r\n      //transferFrom(_from,msg.sender, montantOuvertureCompte);\r\n    // balances[_from]-=montantOuvertureCompte;\r\n     //balances[msg.sender]+=montantOuvertureCompte;\r\n      utilisateurCounter++;\r\n      Utilisateur memory nouvelUtilisateur;\r\n      nouvelUtilisateur.mail=_mail;\r\n      nouvelUtilisateur.nom=_nom;\r\n      nouvelUtilisateur.actif=0;\r\n      nouvelUtilisateur.profil=0;\r\n      nouvelUtilisateur.id=utilisateurCounter;\r\n      //nouvelUtilisateur.addr=_addr;\r\n\r\n      listeUtilisateur[_addr] = nouvelUtilisateur;\r\n\r\n\r\n    }\r\n\r\n\r\n\r\n    function validerUtilisateur(address _address)  public {\r\n\r\n      Utilisateur storage utilisateur = listeUtilisateur[_address];\r\n      //montantOuvertureCompte=msg.value;\r\n      //require(utilisateur.id > 0 && utilisateur.id <= utilisateurCounter);\r\n      balances[msg.sender]-=montantOuvertureCompte;\r\n      balances[_address]+=montantOuvertureCompte;\r\n      utilisateur.actif=1;\r\n      /*operationCounter++;\r\n      Operation memory op;\r\n      op.id=operationCounter;\r\n      op.montant = montantOuvertureCompte;\r\n      op.operateur = msg.sender;\r\n      op.typeOperation =  TypeOperation.CREATION_COMPTE;\r\n      operations[operationCounter] = op;*/\r\n      LogAjouterUtilisateur(utilisateur.id, _address, utilisateur.nom, utilisateur.mail,msg.sender,montantOuvertureCompte);\r\n\r\n    }\r\n\r\n    function updateUtilisateur (string _nom,string _mail) public {\r\n      listeUtilisateur[msg.sender].nom =_nom;\r\n      listeUtilisateur[msg.sender].mail =_mail;\r\n      //listeUtilisateur[msg.sender].addr =msg.sender;\r\n      //LogAjouterUtilisateur(listeUtilisateur[msg.sender].id, msg.sender, _nom, _mail);\r\n\r\n    }\r\n    function voirUtilisateur(address _address) public view returns (string,string,uint,uint,address,uint)  {\r\n      return (listeUtilisateur[_address].nom,listeUtilisateur[_address].mail,listeUtilisateur[_address].profil, listeUtilisateur[_address].id,_address,listeUtilisateur[_address].actif);\r\n    }\r\n\r\n    function creationProjet(string _name, string _description, uint256 _price, address _from) public {\r\n        transferFrom(_from,this,_price);\r\n        //transfer(this,_price);\r\n        projetCounter++;\r\n        operationCounter++;\r\n\r\n        Projet memory p;\r\n        p.id = projetCounter;\r\n        p.name=_name;\r\n        p.description=_description;\r\n        p.price = _price;\r\n        p.createur = msg.sender;\r\n\r\n        projets[projetCounter] = p;\r\n        Operation memory op;\r\n        op.id = operationCounter;\r\n        op.montant = _price;\r\n        op.operateur = msg.sender;\r\n        op.typeOperation =  TypeOperation.CREATION_PROJET;\r\n        operations[operationCounter] = op;\r\n        LogCreerProjet(projetCounter, msg.sender, _name, _price);\r\n    }\r\n    function creerProjet(string _name, string _description, uint256 _price) public {\r\n        //transferFrom(_from,this,_price);\r\n        //transfer(this,_price);\r\n        projetCounter++;\r\n        operationCounter++;\r\n\r\n        Projet memory p;\r\n        p.id = projetCounter;\r\n        p.name=_name;\r\n        p.description=_description;\r\n        p.price = _price;\r\n        p.createur = msg.sender;\r\n        p.etat = 0;\r\n        p.priceSolution = 0;\r\n\r\n        projets[projetCounter] = p;\r\n        Operation memory op;\r\n        op.id = operationCounter;\r\n        op.montant = _price;\r\n        op.operateur = msg.sender;\r\n        op.typeOperation =  TypeOperation.CREATION_PROJET;\r\n        operations[operationCounter] = op;\r\n        LogCreerProjet(projetCounter, msg.sender, _name, _price);\r\n    }\r\n\r\n  function ajouterFavoris(uint _id) public {\r\n      require(projetCounter > 0);\r\n      require(_id > 0 && _id <= projetCounter);\r\n      favoris[msg.sender].push(_id);\r\n\r\n    }\r\n\r\n      function envoyerEther(address _receiver) payable public {\r\n        _receiver.transfer(msg.value);\r\n      }\r\n\r\n    function listeFavoris() public view returns (uint[]) {\r\n\r\n        return favoris[msg.sender];\r\n\r\n    }\r\n  function ajouterKiosque(string _name, string _description, uint256 _price) public {\r\n      kiosqueCounter++;\r\n\r\n      Kiosque memory p;\r\n      p.id = kiosqueCounter;\r\n      p.name=_name;\r\n      p.description=_description;\r\n      p.price = _price;\r\n      p.etat = 0;\r\n      p.createur=msg.sender;\r\n      kiosques[kiosqueCounter] = p;\r\n\r\n  }\r\n  function updateKiosque(uint _id,string _nom,uint256 _prix, string _description) public{\r\n        require(kiosqueCounter > 0);\r\n        require(_id > 0 && _id <= kiosqueCounter);\r\n        Kiosque storage kiosque = kiosques[_id];\r\n        kiosque.price=_prix;\r\n        kiosque.name=_nom;\r\n        kiosque.description=_description;\r\n        kiosque.createur=msg.sender;\r\n        kiosques[_id]=kiosque;\r\n      }\r\n\r\n    /*function validerProjet(uint _id) payable public {\r\n\r\n      require(projetCounter > 0);\r\n      require(_id > 0 && _id <= projetCounter);\r\n\r\n      Projet storage projet = projets[_id];\r\n      require(projet.etat!=1);\r\n      //On aloue la prime au projet\r\n      //transfer(this,projet.price);\r\n      balances[msg.sender]-=projet.price;\r\n      projet.etat=1;\r\n      operationCounter++;\r\n      Operation memory op;\r\n      op.id=operationCounter;\r\n      op.montant = projet.price;\r\n      op.operateur = msg.sender;\r\n      op.typeOperation =  TypeOperation.VALIDATION_PROJET;\r\n      operations[operationCounter] = op;\r\n    }*/\r\n    function validerProjet(uint _id) public {\r\n\r\n      require(projetCounter > 0);\r\n      require(_id > 0 && _id <= projetCounter);\r\n\r\n      Projet storage projet = projets[_id];\r\n      require(projet.etat!=1);\r\n      //On aloue la prime au projet\r\n      //transfer(this,projet.price);\r\n      balances[msg.sender]-=(projet.price+montantPrimeCreationProjet);\r\n      balances[projet.createur]+=(projet.price+montantPrimeCreationProjet);\r\n      projet.etat=1;\r\n      /*operationCounter++;\r\n      Operation memory op;\r\n      op.id=operationCounter;\r\n      op.montant = projet.price;\r\n      op.operateur = msg.sender;\r\n      op.typeOperation =  TypeOperation.VALIDATION_PROJET;\r\n      operations[operationCounter] = op;*/\r\n      LogValiderProjet(_id, projet.createur, projet.name, projet.price,montantPrimeCreationProjet,msg.sender);\r\n    }\r\n\r\n    function achatKiosque(uint _id) public {\r\n\r\n      require(kiosqueCounter > 0);\r\n      require(_id > 0 && _id <= kiosqueCounter);\r\n\r\n      Kiosque storage kiosque = kiosques[_id];\r\n      require(kiosque.etat!=1);\r\n      balances[msg.sender]-=kiosque.price;\r\n      balances[kiosque.createur]+=kiosque.price;\r\n      LogKiosque(_id,msg.sender,kiosque.name,kiosque.price,kiosque.createur);\r\n    }\r\n\r\n    function getNumberOfProjets() public view returns (uint) {\r\n      return projetCounter;\r\n    }\r\n    function getNumberOfUsers() public view returns (uint) {\r\n      return utilisateurCounter;\r\n    }\r\n    function getProjets() public view returns (uint[]) {\r\n      uint[] memory projetIds = new uint[](projetCounter);\r\n      uint numberOfProjets = 0;\r\n        for(uint i = 1; i <= projetCounter;  i++) {\r\n        projetIds[numberOfProjets] = projets[i].id;\r\n        numberOfProjets++;\r\n      }\r\n\r\n      uint[] memory listPro = new uint[](numberOfProjets);\r\n      for(uint j = 0; j < numberOfProjets; j++) {\r\n        listPro[j] = projetIds[j];\r\n      }\r\n      return listPro;\r\n    }\r\n\r\n    //Tip sur un projet\r\n    function tipProjet(uint _id,uint256 _montant) public {\r\n\r\n      require(projetCounter > 0);\r\n      require(_id > 0 && _id <= projetCounter);\r\n\r\n      Projet storage projet = projets[_id];\r\n      balances[msg.sender]-=_montant;\r\n      balances[projet.createur]+=_montant;\r\n    /*  operationCounter++;\r\n      Operation memory op;\r\n      op.id=operationCounter;\r\n      op.montant = _montant;\r\n      op.operateur = msg.sender;\r\n      op.typeOperation =  TypeOperation.TIP;\r\n      operations[operationCounter] = op;*/\r\n\r\n      projet.price+=_montant;\r\n      LogTip(operationCounter,msg.sender,_id,projet.name,_montant,projet.createur);\r\n    }\r\n\r\n\r\n    //Solutionner un projet\r\n    function solutionnerProjet(uint _id,address _solutionneur,uint256 montant_) public {\r\n      require(projetCounter > 0);\r\n      require(_id > 0 && _id <= projetCounter);\r\n      Projet storage projet = projets[_id];\r\n      require(montant_<=projet.price);\r\n\r\n      balances[msg.sender]-=montant_;\r\n      balances[_solutionneur]+=montant_;\r\n      projet.priceSolution+=montant_;\r\n\r\n      /*operationCounter++;\r\n      Operation memory op;\r\n      op.id=operationCounter;\r\n      op.montant = montant_;\r\n      op.operateur = msg.sender;\r\n      op.typeOperation =  TypeOperation.SOLUTIONNER_PROJET;\r\n      operations[operationCounter] = op;*/\r\n\r\n      LogSolutionnerProjet(operationCounter,_solutionneur,_id,projet.name,montant_,projet.createur);\r\n  }\r\n\r\n  //transfert de compte  compte\r\n  function transfert(address _receveur,uint256 _montant) payable  public {\r\n  //  balances[msg.sender]-=_montant;\r\n  //  balances[_receveur]+=_montant;\r\n\r\n    transfer(_receveur,_montant);\r\n    operationCounter++;\r\n    Operation memory op;\r\n    op.id=operationCounter;\r\n    op.montant = _montant;\r\n    op.operateur = msg.sender;\r\n    op.typeOperation =  TypeOperation.TRANSFERT;\r\n    op.receveur = _receveur;\r\n    operations[operationCounter] = op;\r\n    LogTransfert(operationCounter,msg.sender,_receveur,_montant);\r\n  }\r\n\r\n\r\n\r\n}\r\n",
  "sourcePath": "C:\\Users\\Icuber\\i3coin\\icubecoin22-05-2019\\contracts\\I3Coin.sol",
  "compiler": {
    "name": "solc",
    "version": "0.4.18+commit.9cf6e910.Emscripten.clang"
  },
  "schemaVersion": "1.0.1",
  "updatedAt": "2019-06-27T13:49:22.012Z"
}